:020000040000FA
:10000000000400209D010000A5010000A7010000E0
:10001000A9010000AB010000AD01000000000000DC
:10002000000000000000000000000000AF01000020
:10003000B101000000000000B3010000B5010000A4
:10004000B7010000B7010000B7010000B7010000D0
:10005000B7010000B7010000B7010000B7010000C0
:10006000B7010000B7010000B7010000B7010000B0
:10007000B7010000B7010000B7010000B7010000A0
:10008000B7010000B7010000B7010000B701000090
:10009000B7010000B7010000B7010000B701000080
:1000A000B7010000B7010000B7010000B701000070
:1000B000B7010000B7010000B7010000B701000060
:1000C000B7010000B7010000B7010000B701000050
:1000D000B7010000B7010000B7010000B701000040
:1000E000B7010000B7010000B7010000B701000030
:1000F000B7010000B7010000B7010000B701000020
:10010000B7010000B7010000B7010000B70100000F
:10011000B7010000B7010000B7010000B7010000FF
:10012000B7010000B7010000B7010000B7010000EF
:10013000B7010000B7010000B7010000B7010000DF
:10014000B7010000B7010000B7010000B7010000CF
:10015000B7010000B7010000B7010000B7010000BF
:10016000B7010000B7010000B7010000B7010000AF
:10017000B7010000B7010000B7010000B70100009F
:10018000B7010000B7010000DFF80CD000F018F84C
:100190000048004705020000000400200648804790
:1001A00006480047FEE7FEE7FEE7FEE7FEE7FEE75C
:1001B000FEE7FEE7FEE7FEE7E5010000890100003B
:1001C000064C074D06E0E06840F0010394E80700A4
:1001D00098471034AC42F6D3FFF7DAFF080200006C
:1001E00018020000704702E008C8121F08C1002A68
:1001F000FAD170477047002001E001C1121F002AA8
:10020000FBD1704700BFFEE718020000000000208D
:0802100000040000F6010000EB
:040000050000019D59
:00000001FF
